:020000040000fa
:10000000f03f0020793f0000bf2f00001f350000a7
:1000100000000000000000000000000000000000e0
:100020000000000000000000000000005b23000052
:1000300000000000000000005b230000c548000035
:100040005b2300005b2300005b2300005b230000b8
:100050005b2300005b2300005b2300005b230000a8
:100060005b230000251800005b2300005b230000d9
:100070005b2300005b2300005b2300005b23000088
:100080005b2300005b2300005b2300005b23000078
:100090005b2300005b2300005b2300005b23000068
:0c00a0005b2300005b2300005b230000da
:020000040000fa
:1000ac00f8b5c046f8bc08bc9e467047113f00002e
:1000bc00f8b5c046f8bc08bc9e467047e93e000047
:020000040000fa
:0800cc0004190000010000000e
:020000040000fa
:1000d400f0b5de46574680b585b082468b4616009d
:1000e4001f00002900d15ce2002a00d15ce2002f4d
:1000f40000d15ce200220023b260f36032607360de
:100104003261736103005b0700d0ffe05346db07f5
:1001140000d499e1786a04f069fc0022b64b01f03e
:1001240043fd0022b54b04f091fd04000d000a23a9
:10013400f85e04f05bfc22002b0001f035fd009416
:10014400019522002b0001f02ffd0022fb239b05cb
:1001540001f02afd04000d000823f85e04f046fcbb
:10016400009a019b01f020fd02000b0020002900f1
:1001740001f072fa0022fb239b0501f015fd002219
:10018400fc239b0501f010fd00229d4b01f064fa55
:1001940004000d00f88804f037fc22002b0001f065
:1001a40003fd002200230290039103f049ff00287d
:1001b40000d145e11023f85e04f018fc04000d00a2
:1001c4000098019902000b0001f0eefc02000b0004
:1001d4002000290001f0e8fc0022fc239b0501f02b
:1001e400e3fc04000d000e23f85e04f0fffb009a0c
:1001f400019b01f0d9fc02000b0001f02dfa220052
:100204002b0001f029fa00227e4b01f0cdfc009076
:1002140001915b46186804f0f7fb02000b00002014
:10022400794904f013fd04000d000c23f85e04f07a
:10023400ddfb0022754b01f0b7fc009a019b01f035
:100244000bfa0022724b01f0affc02000b002000fd
:10025400290004f0fbfc00226e4b01f0a5fc029a7d
:10026400039b02f0c9fb04000d001623f85e04f0a2
:10027400bdfb22002b0001f097fc22002b0001f0b3
:1002840093fc0022f8239b0501f08efc0090019161
:100294001423f85e04f0aafb22002b0001f084fc76
:1002a4000022fc239b0501f07ffc02000b00009858
:1002b400019901f0d1f9009001911223f85e04f044
:1002c40095fb02000b000098019901f0c5f900228a
:1002d400514b01f069fc02000b002000290001f0e1
:1002e400bbf904000d0000224c4b03f0c9fe0028aa
:1002f40000d049e100224a4b2000290003f0a0fe6f
:10030400002800d19ee00024454d9be0486804f09d
:100314007bfb04000d00388804f076fb009001910b
:100324000022404b2000290001f03efc0290039182
:1003340000223d4b0098019901f036fc02000b00ad
:100344000298039904f082fc029003910022374b37
:100354002000290001f028fc04000d000022344b89
:100364000098019901f020fc02000b0020002900f4
:1003740004f06cfc02000b0001f016fc00900191eb
:100384000223f85e04f032fb029a039b01f00cfc9a
:1003940004000d000423f85e04f028fb009a019b7e
:1003a40001f002fc02000b002000290001f054f9c6
:1003b40004000d0004f054f8786200221d4b200064
:1003c400290002f019fb04000d0000221a4b03f06f
:1003d40057fe00280ad10022184b2000290003f000
:1003e4002ffe002804d00024144d01e00024124df7
:1003f400b460f5608ae6c0460000e03f0040ef408c
:100404000000f03f0000d03f000030410000f04009
:100414000000303f006ab8400000b03f004cdd40af
:1004240000dbfa400000103f0000503f0000e03eb7
:100434000000203f0000b440000044c0004055408c
:1004440000245c4d34607560002053465b0700d483
:10045400a2e0786a04f0cafa0022574b04f0f6fbd3
:1004640004000d00387f04f0cffa0022534b01f052
:100474009bfb22002b0001f097fb0022504b01f064
:10048400ebf8009001912223f85604f0affa002211
:100494004a4b01f089fb22002b0001f085fb009af6
:1004a400019b01f081fb0022454b01f0d5f8009a35
:1004b400019b01f079fb009001915b46986804f080
:1004c400a3fa029003912023f85e04f08ffa00222d
:1004d4003c4b01f069fb22002b0001f065fb04009a
:1004e4000d001e23f85e04f081fa0022364b01f061
:1004f4005bfb02000b002000290001f0adf80200b4
:100504000b000298039904f0a1fb04000d001a23c8
:10051400f85e04f06bfa00222c4b01f045fb02005c
:100524000b002000290001f03ffb009a019b01f021
:100534003bfb04000d00387e04f066fa22002b0019
:1005440001f032fb0022fb239b0501f02dfb02008e
:100554000b0000201a4904f079fb22002b0001f063
:1005640023fb04000d000022194b03f069fd002851
:100574000dd1002200232000290003f081fd002872
:1005840007d00024002504e000240a4d5ae7002483
:100594000f4d34617561002005b00cbc92469b463a
:1005a400f0bd01204042f7e701204042f4e701207a
:1005b4004042f1e7004cdd4000c0f2400000503ef4
:1005c4000000f03f0000103f000050400000f03eeb
:0405d400000059408a
:020000040000fa
:1005d800f0b599b011930b68139009934b680d917e
:1005e80005938b680a930b691693cb68039313687a
:1005f800089353680898079300220023079903f08b
:100608003dfd00280bd1099b5b073bd40823099ac1
:100618001a400a9b0b9204930fd0202306e08022f5
:1006280012069446079b634407932d23039a13707d
:100638000a9b013b049301230b930b99079b8c4660
:10064800039a089962445b0010925b08c04a00292b
:100658001ad1934218d1119bbe4c413b2100192b52
:1006680000d9211d109804f05ffb201d04f0fcfa4e
:10067800099b0200009303990a9b139802f00fff4d
:1006880019b0f0bd2b23d1e7934203d811d1089bb1
:10069800002b0ed0119baf4c413b2100192b06d8e3
:1006a8000831109804f040fb20000c30dee70c31d4
:1006b800f7e7002200230898079903f063ff002654
:1006c800a54f002833d000230293119804f0f4fac0
:1006d800c3b20c93059b002b00dacae10c9b06936e
:1006e800672b00d045e1059b002b00d1bce1029ba4
:1006f800043304db029b059a934200da34e1652354
:100708004de126002f00029b013302930022934bf8
:100718003000390001f046fa089a079b04000d00e2
:1007280003f08cfc0028ecd00024012524e0029082
:10073800ece7029b1a008a4b9a4212da002c10d17d
:100748000022884b0898079901f02cfa002208909b
:10075800079130003900834b01f024fa2c00060081
:100768000f007e4b30003900002202f043f90600ea
:100778000f00029b013b029332003b000898079947
:1007880003f07cfc0028d4d19fe732003b00089896
:100798000e9902f02ff902f003fb1490159103f063
:1007a8005dfe1022099b1340034300d090e00c9b90
:1007b800672b00d08ce0002c00db9ae0013580200c
:1007c800000684460e99089a61440b0014981599fe
:1007d8000092019332003b0004f066fa80231b0666
:1007e800cb1808900e933000390000225b4b02f0c2
:1007f80001f906000f00013c059b1293179b9c42d0
:1008080006d00d9b059a1b691493053b9342bcd8ef
:10081800079b002b09d1099bdb0606d5059b039a8c
:10082800013305932e2312995354059a00259446b3
:10083800039b634407931d70069b652b2ed1169b63
:100848005c1e039b1d55029bab4202da5b4202937e
:10085800013503260a27169bf61a029b002b60d146
:100868003319002b5ddc621e2d23002d00d1023bc5
:100878000399023c8b54119b413b192b01d845230a
:100888000693039b1919069b0b70049b023b049368
:10089800059ba34202da079804f046fa0323099a53
:1008a8001340022b12d1049b002b0fdd039804f098
:1008b800dbf9039b049a9b180b9a824242dd049a47
:1008c8003021109804f0c8f900230a930398cde664
:1008d800079b002b0dd1002c0bda059b039a0133e3
:1008e8000593049b1299013b04932e2353542d3beb
:1008f8000793059b3021ea18944602e0039ad154e5
:1009080001339c45fad16246059b303001335b19af
:100918000593049b013b5b1b0493039b00259854a0
:100928004de70298390000f091fe039b3031013cfd
:1009380019550298390000f0a3fd049b0290013b71
:1009480004938ae7039a125c1a540138b4e7c04644
:100958000000f07fa04c00000000f03f00002440a1
:10096800d4feffff00005043029b002b16da6623db
:100978000693059b01330593069b662b10d1029bba
:10098800002b03da002300263d4f02930c9b672bb4
:1009980004d0029a059b9446634405936623069304
:1009a80000230e960f97089c079d12930e9a0f9b93
:1009b8002000290002f01ef802f0f2f914901591b7
:1009c80003f04cfd8021220009066b181790009255
:1009d8000193149815990e9a0f9b04f065f98023da
:1009e8001b06cd180022274b04000e980f9902f021
:1009f80001f8129b0e900f9101331293129a059be6
:100a08009342d3d10022204b01f0ccf80e900f91e5
:100a180002000b002000290003f030fb00280ad157
:100a28000e9a0f9b2000290003f0acfd002806d089
:100a3800179bdb0703d4002300240e930f940e9a10
:100a48000f9b0898079900f005fe069b08900e91e9
:100a5800029c652b00d100240025059b0795e31a0d
:100a680017930b9b0593c7e6012305933fe60623df
:100a7800fbe70c9b672bfad006930623059378e7d0
:0c0a88000000f03f00002440000014407b
:020000040000fa
:100a9400f0b51c000b6897b008934b6813900d9346
:100aa4008b6809930b690e93cb68029313680693c2
:100ab40053680698059300220023059903f0e0fa91
:100ac40000280ad1089b5b073cd40820089b099a9c
:100ad400034004930ed0202306e08022120694469d
:100ae400059b634405932d23029a1370099b5a1e98
:100af4000123049302990498059b081806995b0046
:100b0400413c5b080c9400291ed1b5498b421bd192
:100b1400029a049b944663441800b24c0c9b210037
:100b2400192b00d9211d04f001f9201d04f09ef8b1
:100b3400089b020000930299099b139802f0b1fcf0
:100b440017b0f0bd2b23cfe7a5498b4203d80fd1b3
:100b5400069b002b0cd0a34c0c9b2100192b05d811
:100b6400083104f0e3f820000c30dfe70c31f8e73b
:100b7400049b591c302303700c982833192800d97e
:100b8400203304980230049002984354931e079330
:100b9400002200230698059903f0f6fc002800d1f2
:100ba4006ee100230026904f03930d9b1293002bbc
:100bb40001da1823129300230a960b97069d059ccd
:100bc400109328000a9a0b9b210001f015ff02f0f4
:100bd400e9f80a9a0b9b1490159100f0e5ff0200c6
:100be4000b002800210004f031f8804b05000c00b4
:100bf4000a980b99002200f0d7ff109b0a900b91e2
:100c040001330f930d9b002b07da002200232800e9
:100c1400210003f0b9fc002806d1129b109a9342dc
:100c240000dd31e101330f9300220a980b99704bd8
:100c340000f0baff0a900b9102000b00280021007b
:100c440003f01efa00280dd10a9a0b9b28002100fc
:100c540003f09afc002809d01498159903f000fcbd
:100c6400c30703d4002300240a930b940a9a0b9b12
:100c74000698059900f0f0fc129149000690490885
:100c8400002803d1564b994200d141e70025049c2a
:100c94000a9505950e9b053ba34230dd3b003200cf
:100ca4000698129901f0a8fe02f07cf810901191b8
:100cb40003f0d6fb031e00d0e8e0059a002a00d119
:100cc400e4e001353200109811993b0000f06cff0c
:100cd40002000b000698129903f0b8ff0022069058
:100ce4001291424b3000390000f05eff059b060074
:100cf40001330593059a0f9b0f009342cad10a9bb7
:100d0400002b1cd1029b1b19002d00d10ae10d9a66
:100d1400002a00dc06e1089ad20700d502e12e225f
:100d240002991a702a198a18302159700133934292
:100d3400fbd12c19ed43079b0134eb1807930026d4
:100d4400029b1b191e7005930e9b5d1e029b5e5534
:100d5400039bb34202da5b420393013602230a2760
:100d64000e9a9b1a0693039b002b00d0c4e0069bab
:100d74005b19012b00d1bfe06a1e2d23002e00d188
:100d8400023b0299023d8b540c9a5023192a00d934
:100d94002033029a51190b70ac4202da059803f021
:100da400c5ff0323089a1340022b17d1079c023c6a
:100db400002c13dd029803f059ff029b1b19049abf
:100dc400904200dba9e01300029a30219446634468
:100dd4001800220003f042ff002309930298a5e6bd
:100de4000000f07f904c00000000f03f0000b03f96
:100df4000000204026002f00039b013303933200a0
:100e04003b003000390000f027fc04000d00020014
:100e14000b000698059903f033f90028ead0320054
:100e24003b000698059903f02bf9002800d1bce695
:100e34000022404b3000390000f0b6fe00220023af
:100e440003f0a2fb00280fd000223b4b30003900f6
:100e540000f0aafe002206000f0006980599364b02
:100e640000f0a2fe06900591324b300039000022ba
:100e740000f09afe039b0600013b0f000393cee7ac
:100e8400039000262d4fbae70f9b99e60a9a002a91
:100e94000bd1059a002a08d0079a0299013a0792c1
:100ea4002e220a552d3a01340a92291922008c4621
:100eb40003e030210298815401329445f9d118009d
:100ec400029a013462441492079a6419013a521b3b
:100ed40007925730092b01dc303318000c9b192b77
:100ee40006d820230343613b192b01d803f0edfe00
:100ef400149b00251870e5e60398390000f0a8fb60
:100f0400029b3031013d59550398390000f0bafa7b
:100f1400079b0390013b079325e7029a125c1a543e
:100f240001384ce7089ad20600d408e72e2201348f
:100f34001a7004e70000e03f000050430000f03f57
:020000040000fa
:100f44000023f0b506001500afb005910193059993
:100f54000b78002b00d10fe101235b420a930eab07
:100f640000240c93802309940b940d930b5d002ba8
:100f740001d0252b2ad1002c06d02200300003f00a
:100f840003fa059b1b190593059b1a78252a00d0a3
:100f9400e7e0013302930593022310219c460827be
:100fa400059803782b2b1bd025d8202b1bd0232b63
:100fb4001dd02a2b2ad003f0a3f80b90059b1a7896
:100fc400303a092a33d801330593f7e70134cde7e2
:100fd4000122099b80180393134309930590dfe7cb
:100fe4000423099a0ee0099b03933b430be0099bfe
:100ff40003930b4307e02d2bead0302bd9d1624663
:10100400099b0393134309930130e7e72b680130ed
:101014001a1d1b6805902a600b93002b07da099aa6
:101024005b420392012203990b934a400992099b64
:10103400da0702d5022293430993059b1a782e2ad4
:101044000ed10022581c0a9205905a782a2a28d1d7
:10105400023305932b681a1d1b682a6003930a93b5
:1010640005a803f017fa059b0700187803f026fe7d
:10107400692800d183e035dc632800d1d6e01bdc8d
:10108400252800d1dfe0612859d0252306aa137052
:10109400029b0593002309930b93013b0a930233ac
:1010a400b2e003f02df80a90059b1a78303a092a29
:1010b400d6d801330593f7e7642860d06728e4dcc9
:1010c4002a00390006a803f084fb002800d1a9e017
:1010d400059b09a95a1c05921b7806aa3000fff744
:1010e40079fa3de0702800d17de016dc6e2800d14d
:1010f40091e06f28c9d12b000022390006a801f025
:10110400adff002800d18de0059b06aa013309a993
:101114003000059302f0acfa22e0752840d078281c
:101124004fd07328b1d1802f00d07be0059b2a6873
:1011340001330593131d2b601268002364e02a0019
:10114400390006a803f045fb002800d16ae0059b9e
:1011540009a95a1c05921b7806aa3000fff798fccf
:101164002418019b1c19a34200dc74e04f223b4b62
:101174001a6001235b42019301982fb0f0bd2b004c
:101184000122390006a801f069ff00284ad0059b16
:1011940006aa013309a93000059301f05dfedfe7db
:1011a4002b000022390006a801f058ff002839d08e
:1011b400059b06aa013309a93000059302f0aefc91
:1011c400cee72b000022390006a801f047ff0028d3
:1011d40028d0059b5a1c05921b7806aa09a9300041
:1011e40000f08effbce72b000022f02106a801f0de
:1011f40035ff002816d0059b079a01330593069bfb
:10120400134306d1164a163209a9300002f0aafd8a
:10121400a6e77823e1e7019b39001a1906a82b00f9
:1012240002f0c8fa059b013305939ae7802ff9d1a0
:10123400059b013305932b681a1d1b682a6006aab7
:1012440013700123e0e7802fecd1059b06aa01333c
:1012540005931070f5e7019479e6c046a8080020cc
:04126400284a000014
:020000040000fa
:10126800500800201c00000000000000900700202b
:101278002c00000000000000bc0700202c0000002b
:10128800000000007c0800200c00000000000000a6
:10129800e8070020280000000000000010080020d7
:1012a8002000000000000000b2080020020000003a
:1012b80001000000010000006c0800201000000080
:1012c800000000008808002008000000000000005e
:1012d80090080020080000000000000048070020d7
:1012e8004800000000000000b008002002000000d4
:1012f80000000000a008002004000000000000001a
:10130800f806002050000000000000001806002029
:1013180078000000010000002806002020060020b8
:101328002806002000000000000000002500000042
:101338000800002000040000000000000000000079
:101348000000000000000000000000000000000095
:101358000000000000000000914d000000000000a7
:1013680000000000000000000000000085380000b8
:101378000000000000000000000000000000000065
:101388000000000000000000000000000000000055
:1013980000000020080400000000000030080020c1
:1013a8002000000001000000010000000300000010
:1013b8000000000000000000000000000000000025
:1013c800000000009808002098080020080000008d
:1013d80000000000a4080020040000000000000035
:1013e8000804002010020000000000009006002001
:1013f8006800000001000000010000000300000078
:1014080000000000000000000000000000000000d4
:1014180000000000ad3900000000000000000000de
:10142800000000003d4d00009f4800000000000043
:1014380000000000000000000000000000000000a4
:101448000000000000000000000000000000000094
:101458000000000000000000000000000000000084
:10146800a80800200400000000000000ac080020cc
:101478000400000000000000000000000000000060
:020000040000fa
:1014880003460b437fd4002243088b4274d30309dd
:101498008b425fd3030a8b4244d3030b8b4228d37e
:1014a800030c8b420dd3ff22090212ba030c8b42a4
:1014b80002d31212090265d0030b8b4219d300e044
:1014c800090ac30b8b4201d3cb03c01a5241830bc9
:1014d8008b4201d38b03c01a5241430b8b4201d379
:1014e8004b03c01a5241030b8b4201d30b03c01aa2
:1014f8005241c30a8b4201d3cb02c01a5241830a1c
:101508008b4201d38b02c01a5241430a8b4201d34a
:101518004b02c01a5241030a8b4201d30b02c01a74
:101528005241cdd2c3098b4201d3cb01c01a5241db
:1015380083098b4201d38b01c01a524143098b4264
:1015480001d34b01c01a524103098b4201d30b014d
:10155800c01a5241c3088b4201d3cb00c01a524172
:1015680083088b4201d38b00c01a524143088b4237
:1015780001d34b00c01a5241411a00d201465241d0
:10158800104670475de0ca0f00d04942031000d3ef
:101598004042534000229c4603098b422dd3030a44
:1015a8008b4212d3fc22890112ba030a8b420cd354
:1015b800890192118b4208d3890192118b4204d37d
:1015c80089013ad0921100e08909c3098b4201d3fd
:1015d800cb01c01a524183098b4201d38b01c01a37
:1015e800524143098b4201d34b01c01a52410309ae
:1015f8008b4201d30b01c01a5241c3088b4201d35d
:10160800cb00c01a524183088b4201d38b00c01a09
:101618005241d9d243088b4201d34b00c01a5241e0
:10162800411a00d20146634652415b10104601d36d
:101638004042002b00d54942704763465b1000d3f7
:10164800404201b5002003f0a3fb02bd0029f8d0f9
:0416580016e77047da
:020000040000fa
:10165c00f0b40125ed070f005f405ad48b4200d146
:10166c00824205d950404240504059404b4059406d
:10167c004e18760ddf187f0d3bd0741c640529d0f5
:10168c00f41b352c26d80e0ddb022b43db0ac902ca
:10169c002943c9121700202c1ed2e741e2405740c3
:1016ac00e3415a40a340e3405a400024801859417a
:1016bc000ad3b21c520521d0c207012f6241170078
:1016cc004008cb0718434908013636054208af419c
:1016dc0060417141f0bc7047203c06d01f00e741cf
:1016ec00e3405f400024012a6741c0186141ebd3fd
:1016fc00dfe7002eeed129400020ebe70136310563
:10170c000020e7e7e742e5d10020c143090dc904f9
:10171c00e0e76b400e00871a9e4104d26e40c01b5e
:10172c00b141d21973414e18df18ac0ae642e9d226
:10173c00760d7f0d31d0f41b362ccbd8b4460e0d64
:10174c00db022b43db0ac9022943c90a012c32d81c
:10175c0004d1d4075208df073a435b08ef0a64420e
:10176c00904199411ed0002239424dd1241940415b
:10177c0049410124394204d101340018494139420c
:10178c00fad06246a24204d9361b013e36058919ad
:10179c00a0e7f10ac90700209ce736429ad1002045
:1017ac00002197e70200224394d0b842ded2010018
:1017bc0020002024e3d1202c13dd203ce241170033
:1017cc00a240e2405740e3415a40a340e3405a4014
:1017dc00012fbf410137174300227c4298419141b0
:1017ec000ce01700e741e2405740e3415a40a34068
:1017fc00e3405a407c429041994100220f0303d2ae
:10180c00013e241940414941013e36054708ac418f
:08181c0050417141f0bc70471e
:020000040000fa
:1018240010b5684b9b7d002b17d0664b5b8b9b07d9
:1018340014d5654b2022ff2199540132fd39995466
:10184400614a2023d35c5bb2013300d18ae05e4a53
:101854002023d35c062b00d19ce010bd594b5b8b3d
:10186400db0707d5584b2022ff2199540132fd395b
:101874009954e5e7534b5b8b5b0707d5524b20220a
:10188400ff2199540132fe399954d9e74e4a202355
:10189400d35c5bb2032b43d0042b0fd0022bcfd1ec
:1018a4001369002b04d09088002102f063f9c7e784
:1018b400454b9888012102f05df9c1e7424a9369da
:1018c400126993420bd0404a9168581c9061c95cdc
:1018d4003c4a2823d154d369002bfcd1b0e73a4bbe
:1018e4005b69002b0ed0384b9b885b0001221343ad
:1018f400344a5362d369002bfcd1334a2033032189
:10190400d1549de72f4a5168c0239b020b43536077
:10191400d369002bfcd12c4a20330621d1548fe704
:10192400294a5369013bd2699a420dd0254ad369a9
:10193400002bfcd1244bd968da69501cd8612148aa
:101944002823c35c8b547be71e4a5168e023db02e7
:101954000b435360d369002bfcd11b4a203306216f
:10196400d154e3e720230021d154164a5168c023ff
:101974009b020b435360d369002bfcd1114b832290
:101984001a76114b5b6a002b00d166e70e4a906a07
:10199400984762e71300002220215a5401315a5417
:1019a400084b83321a761900533a4b8b1340102b91
:1019b400fbd1054b5b6a002b00d14ee7024a906acb
:0c19c40098474ae700040042bc070020de
:020000040000fa
:1019d000f0b557464e464546de46e0b5040083b0b6
:1019e0000d00924699468b4230d82dd0494650463c
:1019f00003f098f829000600200003f093f8331a4a
:101a00009846203b9b4633d45a4653469340424621
:101a10001f00534693401e00af423ad8af4200d158
:101a20007be05b46a41bbd41002b00da78e000227e
:101a300000230092019301235a469340019301230e
:101a400042469340009328e08242cfd900220023ef
:101a5000009201930c9b002b01d01c605d600098ec
:101a6000019903b03cbc90469946a246ab46f0bdf6
:101a7000424620239b1a5246da40414613004a460a
:101a80008a40170042461f43534693401e00af4210
:101a9000c4d900220023009201934346002bd9d0e1
:101aa000fb079c46614672080a437b0846460ee0e7
:101ab000ab4201d1a2420cd8a41a9d4101202419a5
:101ac0006d410021013e24184d41002e06d0ab424d
:101ad000eed9013e24196d41002ef8d100980199ec
:101ae0005b4600196941002b25db2b005a46444612
:101af000d3402a00e2401c005b461500002b2bdb84
:101b000026005f46be40330026004746be403200f6
:101b1000801a9941009001919ce7a342b9d880e7cf
:101b20004246202300219b1a0022009101920122ab
:101b3000da40019283e7424620239b1a2a00464658
:101b40009a402300f340444613432a00e2401c001d
:101b50005b461500002bd3da2023424626009b1a51
:101b6000de402f00b4464646b74066463b0033434e
:041b7000cae7c046ba
:020000040000fa
:101b740008d1002806d1f54204d801d3002a01d1a6
:101b84006d0d09d10020c143090dc904f0bdf9d17f
:101b94001242f7d1640df5d00020c143490549082c
:101ba400a6e000206146f0bdf0b50127ff070e0056
:101bb4005e403e40b446be0a4c18dd18f442d7d20b
:101bc400f542e4d2640decd06d0dead06419c9027b
:101bd4003943460dc0023143db023b43db0a10b4f8
:101be4008e4685b297b26f43140c6c433e0ca41915
:101bf400260c2404bfb227439cb26c43a419190ccd
:101c04006943250ca4b249190d04090c6419000c8c
:101c140095b245433e0c76193743bfb2360c150cca
:101c24004543ad19a6b2240cad192e0437432e0c2e
:101c340036199db24543ad19acb22e0c89191d0c51
:101c440045436d182e04290c3443704680b295b276
:101c540045433e0c76193743bfb2360c150c454349
:101c6400ad19a6b2ad19240c2e0437432e0c361927
:101c74009db24543ad19acb22e0c89191d0c4543d8
:101c84006d182e043443290c75462d0c90b268430c
:101c94003e0c80190604bfb23e43070ca0b23f18a5
:101ca400120c6a43d019020c80b2240ca4189ab204
:101cb4006a43121914042043120c89181b0c6b4339
:101cc400c91810bc01273d05294203d1b61940416a
:101cd4004941013cff077d0d013d641b0bdb6d0099
:101ce400ac4209da240500254208be41684161413d
:0a1cf40066463143f0bd54e74ee7a9
:020000040000fa
:021cfe0070472d
:020000040000fa
:101d0000f0b587b0039003a802f0dcf9002802daee
:101d1000002007b0f0bd039b1b095d1e202d09d9d3
:101d20004f49023b4f4a8b4224d8db08d318043b6f
:101d30001d7801352a000120002102f0e7fe002471
:101d400043428c4100930194474f00983a687b6866
:101d50001040020001990b401a433fd1039b05a894
:101d60001033059302f0f5fe002809d10c223f4bf9
:101d70001a60cee7db09d318043b1d781135d9e78b
:101d80003b490c68a04206d0059b0400103b05931c
:101d90000123103483600125059be2180a602b4360
:101da000083a083c28c26360002cb1d0200002f041
:101db0001dfc00280bd023686168ab43e31a5a6806
:101dc000aa4352185a606168a94362501c0020005f
:101dd000039902f051fd200008309ae7214a254975
:101de0003c32002831d1584203404b43db0ed65cd5
:101df0002036300002f0defd731cdb00fc58083b8f
:101e0000fb189c42a0d0272e25dd0235ae4201dc16
:101e10003f2e20d101226368039f9343dd1b2800de
:101e2000009302f0aff9864215d1e268a168e31988
:101e3000da60996093609a68d360012217431f604b
:101e40005d60009be5506760c1e7434203404b4340
:101e5000db0ed65ccde73100200001f05dffb6e778
:101e6000ff010000c43a000010040020a808002070
:081e70000804002029e66b07bd
:020000040000fa
:101e7800f0b589b007001f236b4400221a7002f0e6
:101e88000ffc002800d093e005241f256d44fa2696
:101e9800b60079e001a9002301934b608b60cb6009
:101ea8000b614b610b833b001a22883001f0ceff97
:101eb80000287bd101a94a7812020b7813433b838f
:101ec800ca7812028b7813437b834a7912020b7902
:101ed8001343bb83ca7912028b791343fb834a7a73
:101ee80012020b7a13433b84ca7a12028b7a134389
:101ef8007b844a7b12020b7b1343bb84ca7b12028e
:101f08008b7b1343fb844a7c12020b7c13433b8577
:101f1800ca7c12028b7c13437b854a7d12020b7d9f
:101f28001343bb85ca7d12028b7d1343fb854a7e12
:101f38003023fa543b000722e13001f087ff0028e4
:101f480034d101ab597809021a780a437a8699780c
:101f58003422b9541a7903255d572d010f211140f8
:101f68002943f98605215956090112090a433a8776
:101f78009a793a23fa5419e0796830007b699847ce
:101f8800013ce4b2002c15d03b0001222900d020ee
:101f980001f05cff0028efd12b78602becd13b706f
:101fa800380001f03ffa002800d173e7002c04d074
:101fb80009b0f0bd02204042fae702204042f7e7ac
:020000040000fa
:101fc8000122d20703004b403dd430b4431a01d25a
:101fd800c01ac9184b004400240eff2c29d0002c2d
:101fe80024d01b0e20d0e31a182b1ddc0902114344
:101ff800c40d000210435d4219350a00aa40d209f7
:10200800d940451801d36d080234013ce405280a7b
:102018000121c9072d062a438a4160414100090e62
:10202800ff2901d3c00dc00530bc7047c00fc007e1
:10203800fae742001823da41ff2af5d07f20000191
:102048000c300005f0e7a4465140431a02d2534031
:10205800c01ac9184b00090211431b0e4400240e74
:10206800ff2c41d0002b10d05b421b19012b10d341
:1020780022d1c30d4002401a10d3db050100400aeb
:10208800c90591415841644670472442fbd100205c
:10209800f9e7c30d40024900401af4d0002101318c
:1020a8004000fcd38c4204d95b1adb05400ac018f7
:1020b800e9e7180ac007e6e7192be4d801330c0052
:1020c800d940dc414c40012c4941c30d000210436a
:1020d800441a01d4a4006408013bdb05200a240645
:1020e8009441584164467047ff2b01d04102cad041
:0c20f8007f2000010c300005c5e7c04649
:020000040000fa
:10210400f0b58fb00d934b680c9008938b680d005d
:102114000993cb6816000393089b0f68002b60dbc0
:1021240002239f4310233b400a933368059373684b
:102134000693099b04930a9b002b06d0059b069ae1
:10214400134302d0099b023b049308233b400b93a7
:102154005a1e9341049ad31a04932b69039a5c1e62
:1021640000231355089b0793012c10dd059b069a49
:10217400134339d1079b002b36dc089a049b9b1a26
:10218400079a9b18002b02dd02231f422cd10a9bc5
:10219400002b0bd00cce134308d0039b0d9a1b19b4
:1021a400013b1a703023039a023c13550b9b002bfe
:1021b40003d02023039a013c13552b6900975a1e20
:1021c400039b121b19190c98099b01f06af90c9bcb
:1021d4005b68db0503d56b68984200da18000fb022
:1021e400f0bd012308939de70f22059b013c13409a
:1021f40018005730092b01dc303318000d9b413b8c
:10220400192b06d820230343613b192b01d802f074
:102214005cfd039b1855079b013b0793069b1a071c
:10222400059b1b091a43069b05921b0906939be712
:020000040000fa
:10223400f0b585b0039102921d000cab1c7801f03f
:1022440075fe061e00d178e0012c13d0022c19d0a3
:10225400082c17d0002d00d177e0029b002b00d171
:1022640075e00b9b002b00d173e00a9b002b0ed171
:10227400002012e00b9b002b61d00a9b002b06d19f
:1022840000200ae0002d5cd0029b002b5bd0376855
:102294002923fb5c0020012b01d005b0f0bd0023f5
:1022a4002922bb5473717e62bb69f268934207d0e2
:1022b40030000c303b691b6900219847f368bb610f
:1022c400022c1ad0042c21d00020012c03d0292365
:1022d4000122fa54e1e73b691b680b9a0a990398b7
:1022e40098470028f3d002f031fd2b23fb5c002b30
:1022f40018d102f02ffd0020e9e73b695b682a0052
:102304000299039898470028edd1e0e73b690b9abe
:1023140000929c680a9b2a0002990398a04700280f
:10232400d5d0e0e7013b2b22bb5402f013fd282358
:10233400f85c43425841c0b2c9e70020ade7002031
:10234400abe70020a9e70020a7e70020a5e70020cd
:06235400a3e70020a1e751
:020000040000fa
:02235a00fee79c
:020000040000fa
:10235c00002243088b4274d303098b425fd3030ad8
:10236c008b4244d3030b8b4228d3030c8b420dd3eb
:10237c00ff22090212ba030c8b4202d31212090279
:10238c0065d0030b8b4219d300e0090ac30b8b42b7
:10239c0001d3cb03c01a5241830b8b4201d38b0365
:1023ac00c01a5241430b8b4201d34b03c01a52410a
:1023bc00030b8b4201d30b03c01a5241c30a8b424d
:1023cc0001d3cb02c01a5241830a8b4201d38b0238
:1023dc00c01a5241430a8b4201d34b02c01a5241dc
:1023ec00030a8b4201d30b02c01a5241cdd2c3094e
:1023fc008b4201d3cb01c01a524183098b4201d3ca
:10240c008b01c01a524143098b4201d34b01c01ab4
:10241c00524103098b4201d30b01c01a5241c3082c
:10242c008b4201d3cb00c01a524183088b4201d39b
:10243c008b00c01a524143088b4201d34b00c01a87
:10244c005241411a00d20146524110467047ffe7f3
:10245c0001b5002002f09afc02bdc0460029f7d05d
:04246c0076e7704758
:020000040000fa
:1024700054696d65204572726f720d004661696c1a
:10248000656420746f207365742073656e736f725a
:102490002073657474696e67732028636f646520a8
:1024a000252b64292e0a000054656d7065726174d5
:1024b0007572652c2050726573737572652c204897
:1024c000756d6964697479004661696c656420742e
:1024d0006f207365742073656e736f72206d6f6407
:1024e000652028636f646520252b64292e0a00006f
:1024f0004661696c656420746f206765742073653c
:102500006e736f7220646174612028636f6465204c
:10251000252b64292e0a000025302e316620253017
:102520002e31662025302e3166200d0a0000000075
:10253000496e697469616c697a696e6720493243d2
:102540002e2e2e004f4b0d00496e697469616c6927
:102550007a696e6720424d453238302e2e2e0000ab
:102560004e4f4b0d000000004572726f7220746f69
:1025700020696e697420424d45323830200d0000cc
:020000040000fa
:1025800070b5002841d00468002900d136496300a5
:1025900099423cd3354b9c423bd8080002f0eaf903
:1025a000051c200002f0e6f9011c281c00f0a8fd23
:1025b000061c2f49281c00f041fb2e49fff704fda3
:1025c000011c301c02f03cfb02f0a0f905002a4b74
:1025d0009c4209d8ff235b00ff209d421cd8fe3897
:1025e000012d19d9680817e07e23ff33984212d8cd
:1025f000032836d940000321fff7b0fe060203216d
:102600002800fff7abfe304306e0002028e0002062
:1026100026e0002024e019481749a1428941494297
:10262000174a13680224a3431360d369002bfcd11b
:10263000134bd8601a681348024009061143196009
:102640001a6802210a431a601a00d369002bfcd1d0
:102650000b4b10225a831a00d369002bfcd10120a6
:1026600070bd0948d8e7c046006cdc0240420f004c
:1026700095bfd63300002041801a06007fff00007e
:0c26800000040042fffffffc010200000c
:020000040000fa
:10268c0030b5002863d13a4b5b7b5bb2022b61d136
:10269c00374b1b7b002b60d0354a2a23d35c012b94
:1026ac0002d00120404230bd13002a2298541b78de
:1026bc00002b3bd12e4b5b68002b3dd12c4b9d68e6
:1026cc00002d4dd0db6918009c7910330022002cb2
:1026dc0007d00132aa4243d0180010338479002c61
:1026ec00f7d101238371224b0360017100244471e3
:1026fc005b69c3600b0702d51d4b012119701c4986
:10270c004b6801334b600b8c1b04ff2422401a4393
:10271c0082600b8c01339bb2164a934215d0144a3b
:10272c0013842a230121d1548068bce7104a2a2340
:10273c000121d1540138b6e70b07bfd50c4a2a2327
:10274c000121d15401204042ade70123e7e70120ec
:10275c004042a8e701204042a5e701204042a2e701
:10276c00034a2a230121d154012040429be7c04651
:08277c0090070020ffff0000a0
:020000040000fa
:1027840010b52e4b1b78012b43d0002b02d0032b0a
:1027940048d010bd2a4a762313702a4b012119729e
:1027a4002949d96029491961294959615a60294837
:1027b400403002f0edf80b210020fff765ff1f4bbe
:1027c4005860431c1dd0234c2000543002f016f8ee
:1027d4002000583002f0dcf81a48fff74bfb0028c1
:1027e40007d11c48543002f009f8144b01221a7026
:1027f400cfe71848703002f001f8104b03221a702a
:10280400c7e71448703001f0f9ff0c4b03221a702b
:10281400bfe70c4800f0b2f90028bad0074b0322f6
:102824001a70b6e7054c606801f094ff09487830e7
:1028340001f0e4ff02232370abe7c04690080020b8
:10284400b0080020480700201d430000093e000096
:0828540055430000f0240000d0
:020000040000fa
:10285c00f0b5de4657464e464546e0b585b0814656
:10286c0000284bd02e4b196a83689a4600290cd04d
:10287c008b6852460392002290469a4545d300221b
:10288c0000238b460092019305e052468260244b54
:10289c00186233e0e3465e46b66834000025009ac1
:1028ac00019b12196b41009201935e46b669b446c6
:1028bc00002e12d06646b66800210f00009a019bcc
:1028cc00b6185f41474525d8e4d1039b9e42e1d918
:1028dc0060465946009a019b01e0300059464c462f
:1028ec00a0618c6151468a1a4b469a609b69002bf9
:1028fc0004d04a4691689a68521a9a6005b03cbc5a
:10290c0090469946a246ab46f0bd054b18628161d4
:10291c000022e7e760465946009a019bdfe7c04674
:04292c00e807002098
:020000040000fa
:10293000f7b5002858d00838436801221e00964396
:1029400085192a680400934200d0ffde01276b68d6
:10295000226813403b420ed1200001f047fe0028c0
:1029600043d1280001f089fe0028f0d06b68bb43fa
:10297000f618ed18ebe73b003343636030002b6043
:1029800001f000fc019002f015f86b68226813401a
:102990003b42e1d0184b019a1868596802f0aaf836
:1029a000384212d1019a0120002102f0aff80b0049
:1029b000002804d0104a126802430f480260002b1e
:1029c00003d00d4a53680b435360019b0a4a0133fd
:1029d000db00d3181a005b68083a66602e60e3607b
:1029e000a260d460e3689c60f7bd2368bb43e41a2f
:0c29f0006368bb43f618b4e71004002035
:020000040000fa
:1029fc00f0b40125ed070c005c402c40a446ae0a57
:102a0c004c18df18f4423dd2f74245d2640d4cd03d
:102a1c007f0d3cd0e41bc9022943cf0adb022b43b8
:102a2c00db0a0600b61a9f4104d2013cb6197f415d
:102a3c00b6185f416812800d241838dd00188442e6
:102a4c0025d8e80c0021b6197f41b61a9f4103d353
:102a5c0040414941f7d304e0b6185f4100184941a1
:102a6c00f1d32405b6197f41b61a9f4105d33743dc
:102a7c00c20717430022012f5041614162461143a6
:102a8c00f0bc70470cd100280ad1f74208d20020c4
:102a9c00c143490d0905f1e7002a01d1f74206d0df
:102aac000020c143090dc904eae77f0df8d00020ce
:042abc006146e5e7a3
:020000040000fa
:102ac00070b582b006000d0014000120730703d416
:102ad000b30726d102b070bd6b46d81df223037038
:102ae0006b46591daa78072313400b70230001225f
:102af00000f00dfa0028ebd16b46f422da712300c6
:102b0000f33a69460631f43001f0a4f90028dfd128
:102b100023000122694606316846073000f0f7f9c4
:102b2000d6e76b46f4229a712300f33a69460731df
:102b3000f42001f08ff90028ccd1f3070ad4b307b1
:102b400014d423000122694607316846063000f09c
:102b5000def9bfe76b46d91d2a7892001c2313408b
:102b60000a781c30824313430b70e8e76b46d91d8b
:102b7000da791f2313406a78520113430b70e0e7a0
:020000040000fa
:102b8000f0b58db0070042230122c254023b04324b
:102b9000c2540133033ac25402330232c254010018
:102ba0000f2000f09efd041e08d0204b01000c33c6
:102bb000180001f0effe20000db0f0bd1b483830ca
:102bc00001f01efe1a4e1b4d28353900012000f081
:102bd000e1fc041e1ed1796830007b6998473a00f9
:102be00006a9072000f012ff041e19d10a9b0b9cb6
:102bf0000493059402930394089b099c0093019409
:102c0000069a079b280001f0c5fe79680a487b698f
:102c10009847dae705482100583001f0bbfecae7c3
:102c20000100044801f0b6fec5e7c046702400006c
:0c2c3000409c0000f024000040420f0017
:020000040000fa
:102c3c0030b405004d400124e407254042004b0010
:102c4c00120e32d01b0e3cd0ff2a33d0ff2b3fd0bc
:102c5c00d21800022043000a09022143090ac4b217
:102c6c004c43000ac3b24b43000a4843210a5b1889
:102c7c00190a091801d44900013a080a7f3a2adbdb
:102c8c00fe2a0fd2d2051c43240601d00124214375
:102c9c00c9b280295041802901d140084000284305
:102cac0030bc7047ff20c005f9e71b0eff2b0ad084
:102cbc002800f5e7400206d1ff2bf3d1490202d1df
:102ccc00f0e7ff2af4d17f2000010c300005e7e784
:102cdc004902f8d1e6e743020132e9d15b12023333
:082cec00e6d9d805e4e7c04673
:020000040000fa
:102cf400f8b52a4b1c6a59694a1c5a61914215d885
:102d0400002c4ad0254a137f01331377a368002b84
:102d140005d0a368013ba360146a002c35d0a368d6
:102d2400002b32d1012500271c4e12e01a009b69aa
:102d340001339361e4e7e06901f062f9e368002b91
:102d440001d020699847346a002c1ed0a368002b58
:102d54001bd125756575a378002b02d1e368002b80
:102d6400e9d1200000f030ffa378002be6d1677092
:102d7400e4e70b4b00225a759b78012b09d10848d4
:102d840043688360fff768fd03e0054b5b7d002b20
:102d9400efd1024a137f013b1377f8bde807002007
:042da40010080020f3
:020000040000fa
:102da8004b005b0d264af0b55c1e944238d8254a84
:102db8009e1825d4332e22dc234a9b1827d4234a75
:102dc800da400700214b9743f3403c000f000240d4
:102dd8009f4319403d000a430fd0002f0dda2023ee
:102de8005b42f11824d480204003c84002008021af
:102df8004903f1400b00a4185d4120002900f0bdf3
:102e08000020002901db0021f9e71149f7e720221a
:102e18000e4b921b934001225242f2401a43d0e7d4
:102e2800002becd10022c90fcb0710001900e6e7f0
:102e380020218020891b400388400200d7e7c04634
:102e4800fd07000001fcffffe1fbffffffff0f0094
:042e58000000f0bfc7
:020000040000fa
:102e5c00f0b54b6889b005930b6807009c46079347
:102e6c00cb680c008e68049310685168cd0f44d069
:102e7c000b000200002150429941059b002b08dbfe
:102e8c000222634693430793002d02d1079b5a07f6
:102e9c002ad5731e07aa02920a22009301920b00f4
:102eac000200200000f03ffa002d02d1079b5a07c8
:102ebc001ed501382d23002d00d1023b049a13544a
:102ecc0023695a1e049b121a1918079b3800009389
:102edc00330000f0e2fa7b68db0503d563689842a7
:102eec0000da180009b0f0bd1b07db0ff31ad1e7ad
:102efc001b07e5d501382023e0e7059b002bbfda43
:022f0c00c4e718
:020000040000fa
:102f0e00f0b5c64600b586b004000f0090461e0010
:102f1e00151c0a2a00d90a25edb2300001f0bdfbbe
:102f2e00002839d1002c3ad0002f3bd04346002b3d
:102f3e003bd03a7801ab1a70337a012b08d00023bc
:102f4e007f30e15c0140e1540133dab29542f8d8aa
:102f5e004346012b0dd8aab22078736801a93469b3
:102f6e00a0474522b054002813d106b004bc9046a9
:102f7e00f0bd6b465a1d0123e15c1170f95c517076
:102f8e0001330232d9b2a942f6d36d00013daab285
:102f9e00e2e704204042e8e701204042e5e7012055
:102fae004042e2e701204042dfe703204042dce7f7
:020000040000fa
:022fbe00fee72c
:020000040000fa
:102fc000f0b583b005000c001700019308ab1e7824
:102fd00001f0acfa002838d01d4b1b785bb2022bf5
:102fe00006d00124644201f0b5fc200003b0f0bd1e
:102ff000002c24d0ac4225d3164b1b78002b02d0da
:1030000001246442efe7134b01221a7000225a7028
:103010001a755a759e705c60df60019a1a61641bb4
:103020009c600d4a12881404dc61013293b20b4a91
:10303000934202d0084a1380d5e70123fae701241e
:103040006442d0e701246442cde701246442cce726
:10305000e807002010080020b2080020ffff000051
:020000040000fa
:1030600030b5882933d015dc812941d003dc802993
:103070003ed0002030bd822911d08429f9d11c68ae
:1030800002cc1c60002a1ed009b20160c917416041
:103090000120efe7a02923d00adc9029e9d10724f9
:1030a00019680731a14330c9196004604560efe732
:1030b000c02901d0f029dcd11a68111d19601368ec
:1030c0000360002312e089b201604260e0e71c68ff
:1030d00002cc1c60002a01d049b2d6e7c9b2f3e79e
:1030e0001a68111d196013680360db174360cfe78e
:1030f00019680c1d1c600b680360002ae5d0f4e71a
:020000040000fa
:1031000030b405004d400124e407254042004b0047
:10311000120e26d01b0e34d0ff2a2dd0ff2b35d017
:10312000d21a000220430902214343084908a00d96
:103130005b1a02d2013a5b005b185b008b4200d342
:103140005b1a4041f9d37f3222ddff2a06d2d20535
:10315000c91a8b425041284330bc7047ff20c0053c
:10316000f9e71b0e03d0ff2b12d1490210d07f20ac
:1031700000010c300005efe74002f8d1ff2bedd144
:10318000f5e7ff2aead14002f1d1e7e74902eed1a3
:043190002800e1e74b
:020000040000fa
:10319400f0b5c6461f4a204b00b50021934203d226
:1031a400197001339342fbd10b231c4a9c46083b04
:1031b40098461368546819000026214311d017005b
:1031c40091680c3700290fd11a19002c03d01e70f6
:1031d40001339342fbd13a00136854681900214328
:1031e400edd104bc9046f0bd6146c91a1d195118b1
:1031f400002c05d05a1c505c187013009542f9d16c
:10320400434623405a1e9341a4081c19a4003f19a5
:103214003a00e1e7000000200000002068120000ee
:020000040000fa
:103224001c4b5a6852031b68db0c13439b029b0a1a
:10323400194a936300235375110004228b691a42bf
:10324400fcd115491022cb681a42fcd0134b002242
:103254009a611a61124b134a1a62190004224b68cc
:103264001a42fcd10e4acc234021d15010008c319b
:10327400402243581a42fcd0094ad0234021d1505d
:1032840010009031402243581a42fcd0064b0622cb
:10329400da61704720608000001000400014004094
:0c32a400001c0040060101000008004072
:020000040000fa
:1032b000f0b51600050002278369426987b00293c2
:1032c000d31a03939b1904910596019302ac3a001b
:1032d0002100286801f0bcfa019b984208d1ab6834
:1032e000ea68ab619a18aa626b61300007b0f0bd62
:1032f00000280cda102200236968ab620a43ab6134
:103300006b616a60022f12d06368f61aede7019bc9
:103310001b1a01936368984202d9c01a0834013f0e
:1033200023681b1823606368181a6060cfe71e00cb
:02333000dbe7d9
:020000040000fa
:10333200f0b5050085b019000c9b100001931a68c6
:103342002b696c68013bef681d00002c00da012438
:103352000026fe540a9e0123361b029602261640c0
:103362000b9ad2170392002d04dc002b17d02800f1
:1033720005b0f0bd02000a4307d1002c05dc029a19
:103382001219002af1dd002eefd00b9a039b00f0f8
:10339200d8fe013d130030327a55013ce3e7102399
:0e33a200019a12689a431300019a1360dfe744
:020000040000fa
:1033b000f8b5846a05000f001600002c0ad0ab6a2d
:1033c0006a699b1ab3420cd2320039002800fff719
:1033d0006fff05e001f051fb03002000002beed051
:1033e000f8bd002ef0d02b0034331b785bb2002bdd
:1033f0001adb3400dbb2621eb95c994212d12200a2
:1034000039002800fff754ffa042e9d33f19341bcd
:1034100022003900686901f0e1fb6b6930001c197a
:0c3420006c61dde7141ee6d13400f1e71a
:020000040000fa
:10342c00f0b583b007006b46e022da716b460022e0
:10343c009a716b46b6325a7101f030f9002801d0fe
:10344c0003b0f0bd3b0001226946053168460730e8
:10345c00fff757fd0028f3d10624fa26f6006b4639
:10346c009d1d796830007b6998473b00012229003b
:10347c00f32000f0e9fc002807d1013ce4b2002c59
:10348c0003d02b78db07ecd4dae76b4606331b78da
:0a349c00db07d5d506204042d2e739
:020000040000fa
:1034a600f0b51e00012389b014000e9a07001a40d9
:1034b6000291019220d1b4421eda351b03952a00ef
:1034c600102d00d91022202104a801f0c6fb0f2dd3
:1034d6001bdc0f22039b04a913401a00380000f0de
:1034e60052ff019b002b04d122000299380000f004
:1034f6004aff300009b0f0bd22000299380000f002
:1035060042ffb442d9db2600f3e7102204a93800b3
:0835160000f039ff103ddae777
:020000040000fa
:02351e00fee7c6
:020000040000fa
:1035200010b5164b06225a60154b1b68186800210f
:1035300001f04bfb134b1b681868002101f045fba1
:1035400000f0dcfffff76efe01f0c8fb00f0cafee2
:10355000fef7d5fb00f0faf901f0a2f90a490020c4
:1035600000f050f8094c20600949002000f058f99b
:10357000606001f0d1fb01f0c3f810bd00400041d4
:103580001c0600204c080020204c00008808002069
:04359000604d00008a
:020000040000fa
:1035940030b583b005000c00080001f083f8002862
:1035a40001d003b030bd21006b46d81d00f008ffe8
:1035b4000028f6d16b4607331b78002b1ad16b46d3
:1035c400f4225a712300f33a69460631f42000f0dc
:1035d4003ffc0028e5d16b46991d0b7803229343e9
:1035e40015401d430d702300023a68460530fff76d
:1035f4008cfcd6e7200000f075f90028d1d1dee775
:020000040000fa
:1036040070b500282ad1184b5b7b5bb2022b28d003
:10361400154c0122012522730b6823614b68e36179
:103624008b68a36000236360636222842370cb6889
:103634006361cb68a3612a23e254013be55401f0a2
:1036440085fb2b23e55401f085fb23695b6921008d
:103654000648984702236373002070bd012040424e
:10366400fbe701204042f8e790070020d546000020
:020000040000fa
:10367400f0b50b680c008f68cd68496887b0060008
:103684000593002902db02218b43059305a95368a6
:10369400126802910821009701912000fff747fe6c
:1036a400059bdb0602d5302301382b54059b1b07f1
:1036b40002d5202301382b54236929185a1e059b4f
:1036c400121a009330003b00fff7ebfe7368db0532
:0e36d40003d56368984200da180007b0f0bd15
:020000040000fa
:1036e20070b582b006000d00080000f0dcff041e79
:1036f20002d0200002b070bd29006b46d81d00f038
:1037020060fe041ef5d16b4607331b78002b0cd1eb
:10371200730711d118233342ebd0290040312a001c
:10372200300000f013f80400e3e7280000f0dbf8b3
:103732000028edd00400dce7290040312a003000e7
:0c374200fff7bdf90028e5d00400d2e735
:020000040000fa
:10374e0070b582b006000d0014006b46f522da71da
:10375e002300f43a69460631f52000f074fb002888
:10376e000bd133070bd4f30615d42300012269467f
:10377e00063168460730fff7c3fb02b070bd6b46db
:10378e00991dea7892001c2313400a781c3082435c
:10379e0013430b70e7e76b46991d9a791f2313406d
:0a37ae002a79520113430b70dfe784
:020000040000fa
:1037b80010b584291fd007dc812915d0822922d091
:1037c800802911d0002010bd90291cd008dc882940
:1037d800f8d119680c1d1c600b6803601a7010e0a2
:1037e800a02901d0c029edd119680c1d1c600b68f7
:1037f80003601a6005e019680c1d1c600b68036003
:103808001a800120dfe719680c1d1c600b68036033
:083818001a60d2175a60f4e7b0
:020000040000fa
:1038200010b5002922d0002823d1134c24230122d3
:10383000e2540a686260fa239b00e3600423cb56db
:10384000237200236361a36123622377136800213d
:103850000a48984763685b68984720220021084817
:1038600001f0fef902232370200010bd0120404228
:10387000fbe701204042f8e7e8070020f52c0000b4
:04388000100800200c
:020000040000fa
:103884007fb51600c2680d0013000091591e8b41cc
:10389400f31a0193836804000392694602220068c4
:1038a400029300f0bfff002808dc1822082302401e
:1038b4005340626813436360060010e0019b834237
:1038c400fad2a268c01ae3681018e2632064002bdd
:1038d40005d0531ce3631378ad19013d2b70300000
:0438e40004b070bdff
:020000040000fa
:1038e80030b585b004000300042203a9f22000f0db
:1038f800adfa002801d005b030bd01ab03a80178ae
:1039080007221140997081788d1015401d70490962
:103918005970c17888100240da704909197120007d
:10392800fff780fd0028e6d1220001a91f30fff72c
:10393800c3f80028dfd1220001a91f30fff703ffd9
:02394800d9e7bd
:020000040000fa
:02394a007047c4
:020000040000fa
:10394c00144b01221a601a00d369002bfcd1114bc5
:10395c00802252005a601a00d369002bfcd10d4b07
:10396c003422da600c4a1a601a00d369002bfcd19d
:10397c00084b10225a831a00d369002bfcd1074b39
:10398c00002221215a5401395a54024b83329a7520
:10399c007047c0460004004216001000bc0700200f
:020000040000fa
:1039ac0037b504000d00002801d100203ebd43684e
:1039bc009b0607d543698269934217d80023a362fb
:1039cc00a3616361e26b236c9a4206d20121d21a85
:1039dc00d3170091206801f0dbf900232364e36323
:1039ec009d42e2d0206801f0c5f9dfe70022c36aee
:1039fc00110098476369002be0d101204042d5e7c4
:020000040000fa
:103a0c0070b586b006000d001400002204920592d9
:103a1c00019202920392200000f040fe002817d180
:103a2c00002d18d02300082204a9f73000f00cfa5e
:103a3c00002801d006b070bd01a904a800f040fd1b
:103a4c00230018332a0001a93000fcf73dfbf1e7f5
:0c3a5c0001204042eee701204042ebe771
:020000040000fa
:103a680000230e4a10b513600d4a13600d4a136007
:103a78000d4a13600d4a13600d4a536213610133f6
:103a8800936001f0f9f800f072f80a4c0a4b9c4276
:103a980000d310bd08cc9847f8e7c046a40800201a
:103aa8000407002000070020f8060020fc0600207c
:0c3ab80008070020b8000000bc0000005f
:020000040000fa
:103ac40020212223242425252626272728282828a0
:103ad400292929292a2a2a2a2b2b2b2b2c2c2c2c3a
:103ae4002c2c2c2c2d2d2d2d2d2d2d2d2e2e2e2e02
:103af4002e2e2e2e2f2f2f2f2f2f2f2f0001170278
:103b04001d1813031e1b190b1408040d1f161c1279
:0c3b14001a0a070c1511090610050f0e07
:020000040000fa
:103b2000f0b50b680c008f68cd68496887b0060057
:103b30000593002902db02218b43059305a95368f5
:103b4000126802910a21009701912000fff7f1fb12
:103b5000236929185a1e059b121a009330003b0056
:103b6000fff7a1fc7368db0503d56368984200dab0
:063b7000180007b0f0bdd3
:020000040000fa
:023b7600704796
:020000040000fa
:103b780010b5114b00229a61da61104b83321a7624
:103b88005a680f4c22405a601a00d369002bfcd1a6
:103b980000290cd0084a20330324d4544000084399
:103ba800064b58621a00d369002bfcd110bd024a9b
:103bb80020230424d454f1e7bc0700200004004269
:043bc800fffffbff01
:020000040000fa
:103bcc0010b5134b1a6a002a19d0824205d18369a9
:103bdc00002b15d0002208e01a009369002b0ed0a0
:103bec009842f9d18369002b05d08468996809192a
:103bfc009960002a06d0836993610023836110bd0c
:103c0c001a00f6e7024b1a6a92691a62f5e7c04687
:043c1c00e807002095
:020000040000fa
:103c200010b582b002000c1e1ed00123002802d164
:103c3000180002b010bd0d4bd8680023002100f021
:103c400019f80b4a002300f07dfa010000230093cd
:103c500000220020fff7b4f920600123421ce7d0c6
:103c600000f01df90023e3e70123e1e7e807002066
:043c700040420f00bf
:020000040000fa
:103c7400f0b5ce46474615042d0c2e0080b507043a
:103c8400140c3f0c9946030c7e435d436743634326
:103c94007f19340ce4199c46a54203d980235b02a6
:103ca4009846c4444b4643435143250c360465446b
:103cb400360c2404a4195b19591820000cbc904636
:043cc4009946f0bd70
:020000040000fa
:103cc80070b5040016001d00022a1cd043689b062c
:103cd80019d4002908d1002d01d18025ed00280034
:103ce8000830fef709f8010020236268a160134339
:103cf80063602300e5603433ff22012e00d10a22dd
:103d08001a70024be362002070bdc046b133000058
:020000040000fa
:103d180070b5c668856804000a00ae4211d101205a
:103d2800002100f0effec043c943431c03d00b4bf6
:103d38001a68104018604b1c03d0084a5368194091
:103d48005160012319006268b56011439a43ee601f
:103d58006160a41822681343236070bd100400201a
:020000040000fa
:103d6800f0b50f0087b0039015001049072204a88a
:103d78001c0000f02fffbb687e6802933f68002d8f
:103d880000d104ad002c03d1280000f06dff040021
:103d9800002e02dbb44200d934000097029b2200b7
:103da80029000398fff77bfb07b0f0bd884d0000a2
:020000040000fa
:103db80037b56b46dd1d836a04002970002b0cd0d3
:103dc8006369a26a93420fd3e36a012229002000a3
:103dd8009847012805d1287805e000f04afe002818
:103de800eed0012040423ebd2200343212782878bd
:0e3df80052b29042e8d05a1c62611870f3e794
:020000040000fa
:023e0600704703
:020000040000fa
:103e080030b585b00191150003aa0021118010700a
:103e18001c780d4b58680123210000f08bfe002808
:103e28000ed0094b58682b0001aa210000f082fe31
:103e3800431e9841434204201840043805b030bd61
:0c3e480004204042fae7c0469008002029
:020000040000fa
:103e5400f8b505000e0017001c00180000f022fc45
:103e6400002814d1002e15d0237a012b01d08023f1
:103e74001d4363683a0031002800e568a8474522dd
:103e8400a054002800d1f8bd04204042fbe70120e3
:0a3e94004042f8e701204042f5e744
:020000040000fa
:103e9e0070b5040000f043fb00281cd0200000f099
:103eae0056fb041e15d043780025002b0dd18368d8
:103ebe00002b01d1436883602000fef7c8fc00236d
:103ece002375637501336370002500f03cfd2800f7
:0a3ede0070bd0125f9e70125f9e7a1
:020000040000fa
:103ee80010b5064c2378002b07d1054b002b02d0c8
:103ef800044800e000bf0123237010bd50080020d3
:103f08000000000000000000044b10b5002b03d097
:103f18000349044800e000bf10bdc046000000008f
:083f2800540800200000000015
:020000040000fa
:103f30000200431e033315d803041b0e14d1ff33b4
:103f400003400c4989688b4210d21b010949c8699a
:103f50001818836893420bd183795a1e93415b42b0
:103f6000184070470020fce70020fae70020f8e73f
:083f70000020f6e79007002095
:020000040000fa
:103f780010b50a4b98470a4b9847fff707f9094bc2
:103f8800ff229343084a9360084b9847084b984789
:103f9800084b984700f0a4fcfee7c0464b390000e8
:103fa8004b3900000000000000ed00e0693a000015
:083fb8004b3900004b390000f9
:020000040000fa
:103fc00030b5002818d0002918d00d4a0124072543
:103fd00004e003881385023000290bd00139137ed9
:103fe0002342fcd053682b40012bf2d00378138579
:103ff0000130f1e7012030bd0020fce70120fae7a5
:044000000008004272
:020000040000fa
:1040040010b5040000f090fa002817d0200000f04a
:10401400a3fa041e10d04378002b08d10023237583
:1040240063752370002400f093fc200010bdfff79b
:10403400cbfd00236370f1e70124f4e70124f4e7e6
:020000040000fa
:1040440030b401256d054c00e54215d85c00e5420d
:1040540012d80c001c436400044314430cd005d252
:1040640082428b418041404230bc7047904299412a
:104074008041404230bc7047002030bc7047c0468d
:020000040000fa
:1040840030b401256d054c00e54215d85c00e542cd
:1040940012d80c001c436400044314430cd005d212
:1040a400904299418041404230bc704782428b41ea
:1040b4008041404230bc7047002030bc7047c0464d
:020000040000fa
:1040c4000c4a036810b5546a0b4a591e121b9142dc
:1040d4000bd9002b05d00c220120084b40421a605a
:1040e40010bd102202600020fae70f221733934319
:1040f4000360f8e708070020efffff7fa80800200f
:020000040000fa
:10410400030010b51a78202a0dd0110009390429aa
:1041140009d900212b2a02d02d2a01d101310133e2
:1041240000200a2404e00133ece760430133801ae1
:104134001a78303a092af8d9002900d1404210bd32
:020000040000fa
:10414400002b11d1002a0fd1002900d1002802d060
:104154000021c943081c07b4024802a14018029078
:1041640003bdc046310c000003b4684601b5029893
:10417400fdf72cfc019b9e4602b00cbc7047c04668
:020000040000fa
:104184000309013b1800202b07d90a4a934205d89a
:104194000948db08c318043b18787047e0223f2025
:1041a40052019342f9d80448db09c318043b187838
:0c41b4001030f2e7ff010000c43a0000e8
:020000040000fa
:1041c0000b00496810b50200890603d4190000f0fd
:1041d00014f910bd190034310978c0b249b28142d6
:1041e00007d059699c6aa14203d24c1c5c610a70d9
:0c41f000efe711001800fff7dffdeae721
:020000040000fa
:1041fc001c2101231b04984201d3000c10391b0a0b
:10420c00984201d3000a08391b09984201d30009ce
:10421c00043902a2105c40187047c0460403020225
:0c422c0001010101000000000000000082
:020000040000fa
:1042380070b50c1e0ed0002a0cd01500022801d92a
:10424800280070bd084b002b06d01100200000e0ac
:1042580000bff5e70025f3e78e182078013400f059
:0c426800fbfbb442f9d1ebe700000000c2
:020000040000fa
:1042740010b50c4c2023e45c0023002c01d0180062
:1042840010bd084b9880d9605a6100229a601a6167
:10429400012199701a7020315a542039fff76afcb1
:0842a4000123ece7bc07002038
:020000040000fa
:1042ac0070b50c4d20242d5d0024002d01d0200074
:1042bc0070bd084ca080e360049b6361a160226127
:1042cc000023a37023702122a3540021fff74efc7e
:0842dc000124ece7bc070020ff
:020000040000fa
:1042e4000a4b0b4a1a600b4a9a81c02292025a6006
:1042f4001a00d369002bfcd1044a136802210b4332
:104304001360d369002bfcd17047c04600080042fb
:08431400040100402bf6ffff3d
:020000040000fa
:10431c0010b586b0039105ac20700021617019783e
:10432c00084b5868019203ab00930123220000f064
:10433c00abfb431e9841434204201840043806b09e
:08434c0010bdc04690080020de
:020000040000fa
:1043540000b583b001235b42019301a9fff75efc22
:10436400002804d0074800f049fa03b000bd0198c2
:1043740000f09afb0028f8d1019800f095fb002882
:08438400fad0f2e770240000fa
:020000040000fa
:10438c00436870b50400d80510d52569954200d94d
:10439c0015002a00606900f01bfc226963695b1937
:1043ac00551b0022636125611a7070bddb06fcd4bd
:0843bc00200000f0f1fbf8e71e
:020000040000fa
:1043c40070b504000d00080000f06cf900280cd151
:1043d400002c0dd02b0001222100f430fff738fd12
:1043e400227803231340237070bd01204042fbe771
:0643f40001204042f8e741
:020000040000fa
:1043fa0013b50b006a46d41d5a68c1b22170d205a2
:10440a0005d55a69c0b2541c5c61117016bd0122ef
:10441a002100180000f0c1fb002801d02078f5e740
:06442a0001204042f2e710
:020000040000fa
:1044300010b50b4c2023e45c0023002c01d01800a5
:1044400010bd074b9880dc605c6199601a619c70bc
:104450001c7021229c540021fff78efb0123eee704
:04446000bc07002075
:020000040000fa
:10446400f4464a1805d200f0a9f801d5c01740084f
:10447400604701235b05d34206d200f09ff801d5c3
:104484000120c0074042604701d10042f5d0d01757
:044494004008704725
:020000040000fa
:10449800f0b5050000200a4c4200165d002e02d13e
:1044a800a2185078f0bd296801300f78c0b2b74221
:1044b80003d1a2180131507829600a28ecd9f1e714
:0444c800284a00007e
:020000040000fa
:1044cc0003781b03427812011343827812091343b9
:1044dc000b60c3781b030279120113434279120952
:1044ec0013434b6083791b02c27913438b60704773
:020000040000fa
:1044fc008223db05802212041a60012240215a54c7
:10450c0001315a5407315a5401315a545632002150
:10451c009954273a333199540432113999547047cc
:020000040000fa
:10452c0010b50a4b1b7f0120002b05d1074a243301
:10453c00d35c0020012b00d010bd130024220021dd
:10454c0099545b689b6998470120f5e7e8070020c0
:020000040000fa
:10455c00431e03330dd803040ed1084bda69002334
:10456c00824207d1054b1a780023002a02d0034b54
:10457c0000e00023180070470023fbe71008002020
:020000040000fa
:10458c0070b4012676054c005d00e6420cd8ee4274
:10459c000ad825430543154303d0994204d19042d0
:1045ac0002d1012070bc7047002070bc7047c0461f
:020000040000fa
:1045bc004a0010d2520d03231b02ff33d21a0ad425
:1045cc0052421f3209d4400dc90208430123db07b4
:1045dc001843d040704700207047d0177047c04632
:020000040000fa
:1045ec00f8b5050001262c68344201d000200ee0fd
:1045fc002000fff7c1fd070000f0d6f92868a042a3
:10460c00f1d1b043281a3900fff780fb0120f8bd27
:020000040000fa
:10461c00084a1368002b09d007491818884202d899
:10462c0010601800704701235b42fae7034b1360dc
:10463c00f2e7c046ac080020b80a0020b8080020f9
:020000040000fa
:10464c0070b5140016000a004e430d00511e8a412d
:10465c005242144001003200180000f09dfa8642cc
:0e466c0003d02900fdf774fe0400200070bd8d
:020000040000fa
:10467a00f8b5050001276c683c4201d000200de026
:10468a002000fff77afd060000f08ff96b68a3425d
:0e469a00f1d128003100fff73afb0120f8bdf6
:020000040000fa
:1046a80000280ad0c368002b0ad00369002b0ad05f
:1046b8004069434258414042704701204042fbe76d
:0c46c80001204042f8e701204042f5e7e5
:020000040000fa
:1046d40070b50400456a0369db68984768716b79b3
:1046e400002b07d128330022e2542b22a35c013390
:0c46f400a35470bd28230122e254f6e715
:020000040000fa
:10470000bff35f8f62b6074bc22080001a5806497c
:104710001140c02212020a431a50802292001a60ed
:0c4720007047c04600e100e0ff00ffff12
:020000040000fa
:10472c0010b500f043fa074b07221a601b68db0335
:10473c0005d5054a51688023db040b43536000f018
:0c474c000dfa10bd10e000e000ed00e0f0
:020000040000fa
:1047580010b5fff7e9fb002804d003682a229a5c09
:10476800012a00d010bd5a68013a5a6000221a7016
:0a47780082712a3201219954f4e7fe
:020000040000fa
:1047820070b50500fff7d1fe041e0ad02800fff71e
:10479200e4fe002807d0047de4b20023037500f094
:0a47a200d8f8200070bd0024f9e7ec
:020000040000fa
:1047ac00020000234832d356591e0b4313700423c6
:1047bc004268134005d0102313434360012040424c
:0a47cc0070470364c3631800fae7a6
:020000040000fa
:1047d600002380290fdb812901dd83290bd10721e5
:1047e600136807338b431900083111601a685b6838
:0a47f60002604360012318007047c1
:020000040000fa
:1048000010b5084c2368196800f092f801230028bd
:1048100005db23680a20196800f0aafac30f584282
:0848200010bdc0464c08002049
:020000040000fa
:10482800f7b5002507000c002e000192019b9e425f
:1048380001db2800febd62682168380000f06eface
:0848480001362d180834f1e7d8
:020000040000fa
:10485000f7b5002507000c002e000192019b9e4237
:1048600001db2800febd626821683800fff7e4fc28
:0848700001362d180834f1e7b0
:020000040000fa
:10487800012370b544689c43651a102d0ad9421863
:1048880019432b43116053600832035141601000f3
:06489800fef74af870bdb6
:020000040000fa
:02489e00704761
:020000040000fa
:1048a000054a00231360936004495160062111609a
:1048b000034a93601360704710e000e07fbb000084
:0448c0007c08002050
:020000040000fa
:1048c40010b5064b1b68064b9a6801329a601b6848
:1048d400002b02d0024a5068984710bd10e000e057
:0448e4007c0800202c
:020000040000fa
:1048e80010b50020fef718fe8223db058022120493
:1048f8005a610348fff780ff00f032fafce7c04630
:04490800304c00002f
:020000040000fa
:10490c0041000dd2090e7f390ad449421f3105d41a
:10491c0000020122d2071043c8407047c8177047e5
:04492c0000207047b0
:020000040000fa
:1049300070b50e00050000f09bf933000400020082
:1049400001212800fff782fe001b431e98414042d0
:0249500070bd38
:020000040000fa
:1049540010b5064c63685b699847237f002b03d12d
:10496400024a24330121d15410bdc046e807002077
:020000040000fa
:104974009d2201000ad002d4013a4900fcd5d20597
:10498400080a0906494100d3012950417047c0462d
:020000040000fa
:104994000fb407b5054b04aa1b6802ca1868019234
:1049a40000f09af803b008bc04b018474c08002083
:020000040000fa
:1049b400064b0130c000c258002a05d10200083a53
:1049c400d21819184a60c2507047c046100400201b
:020000040000fa
:1049d4000d4d00007d4b0000114c0000494d0000be
:0c49e400f54c00002d470000014d0000c4
:020000040000fa
:1049f000054b004206d5404200b5984708bc01224d
:0c4a0000d2071143184700000d4a0000c7
:020000040000fa
:104a0c0042221201033a010007d002d4013a0018e5
:0c4a1c00fcd51205c30a4005991870472c
:020000040000fa
:104a280068076c094c836a9074a07ac00080688813
:0c4a380000846c820081286e696c2900eb
:020000040000fa
:104a4400044b984204d9044b404218600120404270
:0c4a54007047c04600f0ffffa8080020db
:020000040000fa
:104a600000b583b06b46d87101216b46d81dfff7a6
:0a4a7000a7fa0028f8d003b000bd3b
:020000040000fa
:104a7a0010b50400fff795fe002805d1a368e26887
:0a4a8a00a36163619b18a36210bdd5
:020000040000fa
:104a940010b584b004240294079c0194069c0094ed
:084aa400fdf7c6fb04b010bdd4
:020000040000fa
:104aac0070b50500fff767fe041e01d1200070bd34
:084abc002800fff7a1faf9e759
:020000040000fa
:104ac4007542000031440000ad420000014c00007a
:084ad40081250000e94c0000ff
:020000040000fa
:104adc0013b50400019201aafcf72efa6368db06f9
:084aec0001d50120404216bd76
:020000040000fa
:104af400d0400b1cd1409c46203ad340184352422c
:104b040063469340184370479140031c90409c4671
:104b1400203a9340194352426346d34019437047a5
:104b240010b5002903d1fff767fb203002e0081c11
:084b3400fff762fb10bdc04653
:020000040000fa
:104b3c0010b584b002240294002401940094fdf773
:064b4c0073fb04b010bd74
:020000040000fa
:104b5200006810b5002801da002010bdfff75dfde6
:064b6200431cfad1f8e744
:020000040000fa
:104b6800002803d0bff35f8f62b6704772b6bff3f9
:044b78005f8ffae76a
:020000040000fa
:104b7c00034b00229a601a6801210a431a6070479d
:044b8c0010e000e055
:020000040000fa
:104b900010b500f0f1f8024b1860586010bdc04627
:044ba0009808002051
:020000040000fa
:104ba400c36a10b5002b01d0984710bd0068fff709
:044bb40041fbfae7e0
:020000040000fa
:104bb800eff3108072b6bff35f8f43425841c0b223
:024bc800704734
:020000040000fa
:104bca004a424a41802310b55200db00fff777f8ca
:024bda0010bd0c
:020000040000fa
:104bdc00002310b59a4200d110bdcc5cc4540133f3
:024bec00f8e7e8
:020000040000fa
:104bee0003000a7818001a7001310133002af8d137
:024bfe007047fe
:020000040000fa
:104c0000024a2123d05cc0b27047c046bc070020d6
:020000040000fa
:104c1000024a136801218b431360704710e000e0e3
:020000040000fa
:104c2000c44a00006c080020010000009001000050
:020000040000fa
:104c3000424d453238302053656e736f720d00005f
:020000040000fa
:104c40000122d2075140014b18470000cd1f000040
:020000040000fa
:104c5000f0b40125ed076b40004c204763160000bf
:020000040000fa
:104c600003001218934200d1704719700133f9e71d
:020000040000fa
:104c700003001a78002a01d1181a70470133f8e7a7
:020000040000fa
:104c800010b5fff785fffff7bef8fff7bcf810bdc2
:020000040000fa
:104c9000494e4600696e66004e414e006e616e00e0
:104ca000494e4600696e66004e414e006e616e00d0
:020000040000fa
:104cb00010b5fcf77bff029a039bfcf7cffc10bdfd
:020000040000fa
:0e4cc0000300413b192b01d8202318437047f5
:020000040000fa
:0e4cce000300613b192b01d85f23184070478b
:020000040000fa
:0c4cdc00014b84225a60704700400041e8
:020000040000fa
:0c4ce800014b586299627047bc07002025
:020000040000fa
:0c4cf4000138014b5860704710e000e0f0
:020000040000fa
:0c4d0000014b05221a60704710e000e033
:020000040000fa
:0c4d0c00014b1860596070477c080020c3
:020000040000fa
:0c4d1800014b00221a7070479008002028
:020000040000fa
:0c4d2400092010b54042fff78bfe10bdc7
:020000040000fa
:0c4d300010b50400fff75bff200010bd71
:020000040000fa
:0a4d3c0010b50068fff77afa10bd09
:020000040000fa
:084d480000487047006cdc021a
:020000040000fa
:084d500010b5fff731ff10bda3
:020000040000fa
:084d580010b5fff705ff10bdc7
:020000040000fa
:084d6000d4490000ff0000002f
:020000040000fa
:084d680010b5fdf70bfd10bdb5
:020000040000fa
:084d700010b5fff725fa10bd94
:020000040000fa
:084d780000487047900600207e
:020000040000fa
:084d8000012040427047c046cb
:020000040000fa
:074d8800286e756c6c290018
:020000040000fa
:064d900000200021704725
:020000040000fa
:044d98007047c0465a
:020000040000fa
:044d9c00002070473c
:020000040000fa
:0200000400807a
:04400000ff00fe03bc
:020000040000fa
:0200000400807a
:0440040000fcffffbe
:00000001FF
